S00B00005450342E7372656341
S11300000C9434000C9451000C9451000C94510045
S11300100C9451000C9451000C9451000C94510018
S11300200C9451000C9451000C9451000C94510008
S11300300C9451000C9451000C94A0020C945100A7
S11300400C9451000C9451000C9451000C945100E8
S11300500C9451000C9451000C9451000C945100D8
S11300600C9451000C94510011241FBECFEFD8E022
S1130070DEBFCDBF11E0A0E0B1E0E2EAF5E002C0EE
S113008005900D92A430B107D9F721E0A4E0B1E0C6
S113009001C01D92AF32B207E1F70E9480010C94B7
S11300A0CF020C94000081E080937E0087E8809367
S11300B07A00ECE7F0E08081806480830895EAE7C9
S11300C0F0E080818064808380917A0084FFFCCF9B
S11300D0EAE7F0E0808180618083809178009091EC
S11300E0790090930501809304010895CF935DEC0A
S11300F0859FA12D1124A695A695A6952A2F220F9A
S1130100922F990F990F920FC82FC91B659F712DBC
S11301101124769576957695972F990F892F880FC8
S1130120880F890FB62FB81B459F512D1124569562
S113013056955695952F990F892F880F880F890FFB
S1130140642F681B80E021C0282F30E08C1718F43E
S113015091E09A0F01C09A2FF901E65EFE4F908359
S11301608B1718F491E0970F01C0972FF901E05F06
S1130170FE4F9083861718F491E0950F01C0952FD8
S1130180F901EA5FFE4F90838F5F8A30E8F2CF91E6
S113019008958093260108952FEF30E0281B31093C
S11301A030938B0020938A008093250108952FEFCC
S11301B030E0281B31093093890020938800809314
S11301C02401089584B1866284B985B1806285B9B9
S11301D080E00E94C90080E00E94CC0080E00E9480
S11301E0D70020E00FC0822F90E0FC01E65EFE4FB6
S11301F01082FC01E05FFE4F1082FC01EA5FFE4FBB
S113020010822F5F2A3078F3089580912601089593
S113021080912501089580912401089580912901F8
S1130220089580912801089580912701089580936D
S1130230290160932801409327010E9476000895C4
S1130240CF93DF93EC010E940501C65EDE4F9881D7
S1130250890F0E94C900DF91CF910895CF93DF9356
S1130260EC010E940801C05FDE4F9881890F0E9453
S1130270CC00DF91CF910895CF93DF93EC010E94DE
S11302800B01CA5FDE4F9881890F0E94D700DF916E
S1130290CF910895CF93DF93EC010E940501E9E02B
S11302A0F0E0EC1BFD0BE65EFE4F9081891B0E9483
S11302B0C900DF91CF910895CF93DF93EC010E94A1
S11302C00801E9E0F0E0EC1BFD0BE05FFE4F9081DC
S11302D0891B0E94CC00DF91CF910895CF93DF93C7
S11302E0EC010E940B01E9E0F0E0EC1BFD0BEA5F7E
S11302F0FE4F9081891B0E94D700DF91CF91089512
S11303000E9492020E94C4020E94E2000E949B0189
S11303104FEF6AE080E00E9417010E94530084B10D
S1130320806184B985B18F7E85B978940E94530227
S11303300E948702FBCF83E080932C0110922B0153
S113034010922A01089580912A0190912B0101961F
S113035090932B0180932A0180912C01813009F420
S113036053C058F1823009F46CC0833009F09AC04C
S113037085B1806185B980E00E94C90080E00E9457
S1130380CC0080E00E94D7000E945F00893C910568
S11303901CF024E630E002C02AE030E080912A011B
S11303A090912B012817390709F07CC010922C0179
S11303B010922B0110922A01089585B1806185B9AC
S11303C080912A0190912B0101970E942001809134
S11303D02A0190912B0101970E942E0180912A01FC
S11303E090912B0101970E943C0180912A019091E8
S11303F02B010A9709F056C081E080932C011092DA
S11304002B0110922A01089585B18F7E85B90E942F
S11304100E010E94C9000E9411010E94CC000E949A
S113042014010E94D70080912A0190912B014497D6
S1130430C9F582E080932C0110922B0110922A01BD
S1130440089585B1806185B90E940E01882339F031
S113045080912A0190912B0101970E944A010E94E8
S11304601101882339F080912A0190912B01019781
S11304700E945C010E941401882339F080912A01B2
S113048090912B0101970E946E0180912A01909115
S11304902B010A9739F483E080932C0110922B01ED
S11304A010922A01089580912E01882329F00E9438
S11304B0A30110922E01089580912D0181111092B3
S11304C02D0108958091020190910301019690936A
S11304D0030180930201C29739F481E080932E01D5
S11304E01092030110920201809100019091010188
S11304F0019690930101809300010A9739F481E0F9
S113050080932D011092010110920001089583B788
S1130510817F83BF83B7816083BF889583B78E7FD4
S113052083BF089584B5826084BD85B5836085BD2D
S1130530EEE6F0E080818260808389EF87BD0895D4
S11305401F920F920FB60F9211242F933F934F9344
S11305505F936F937F938F939F93AF93BF93EF9327
S1130560FF930E946202FF91EF91BF91AF919F911F
S11305708F917F916F915F914F913F912F910F9048
S11305800FBE0F901F901895E0E8F0E08081816A1B
S11305908083E1E8F0E080818C6080830895F894A2
S10505A0FFCF87
S10705A20800310018
S9030000FC
