:100000000C9434000C9451000C9451000C94510049
:100010000C9451000C9451000C9451000C9451001C
:100020000C9451000C9451000C9451000C9451000C
:100030000C9451000C9451000C94CF000C9451007E
:100040000C9451000C9451000C9451000C945100EC
:100050000C9451000C9451000C9451000C945100DC
:100060000C9451000C94510011241FBECFEFD8E026
:10007000DEBFCDBF11E0A0E0B1E0E0E0F2E002C001
:1000800005900D92A230B107D9F721E0A2E0B1E0CE
:1000900001C01D92A830B207E1F70E947D000C94C8
:1000A000FE000C9400002FEF30E0281B3109309344
:1000B0008B0020938A008093030108952FEF30E096
:1000C000281B310930938900209388008093020116
:1000D000089584B1866284B985B1806285B980E073
:1000E0000E94530080E00E945E0008958093060104
:1000F000609305014093040108950E94C1000E948D
:10010000F3000E94690048EC62E884E60E947600F1
:1001100084B1806184B985B18F7E85B978940E945D
:1001200099000E94B600FBCF95B180E1892785B97F
:10013000089580910701882321F00E949400109275
:10014000070108958091000190910101019690931B
:10015000010180930001843F914039F481E0809354
:1001600007011092010110920001089583B7817F69
:1001700083BF83B7816083BF889583B78E7F83BF3A
:10018000089584B5826084BD85B5836085BDEEE643
:10019000F0E080818260808389EF87BD08951F929F
:1001A0000F920FB60F9211242F933F934F935F93AB
:1001B0006F937F938F939F93AF93BF93EF93FF932F
:1001C0000E94A200FF91EF91BF91AF919F918F91FB
:1001D0007F916F915F914F913F912F910F900FBE43
:1001E0000F901F901895E0E8F0E08081816A80838D
:1001F000E1E8F0E080818C6080830895F894FFCF7F
:02020000F30108
:00000001FF
