:100000000C9434000C9451000C9451000C94510049
:100010000C9451000C9451000C9451000C9451001C
:100020000C9451000C9451000C9451000C9451000C
:100030000C9451000C9451000C947C020C945100CF
:100040000C9451000C9451000C9451000C945100EC
:100050000C9451000C9451000C9451000C945100DC
:100060000C9451000C94510011241FBECFEFD8E026
:10007000DEBFCDBF11E0A0E0B1E0EAE5F5E002C0EF
:1000800005900D92A230B107D9F721E0A2E0B1E0CE
:1000900001C01D92AD32B207E1F70E945D010C94E0
:1000A000AB020C940000CF935DEC859FA12D112431
:1000B000A695A695A6952A2F220F922F990F990FF4
:1000C000920FC82FC91B659F712D112476957695C7
:1000D0007695972F990F892F880F880F890FB62F44
:1000E000B81B459F512D1124569556955695952F21
:1000F000990F892F880F880F890F642F681B80E064
:1001000021C0282F30E08C1718F491E09A0F01C01D
:100110009A2FF901EA5EFE4F90838B1718F491E055
:10012000970F01C0972FF901E45FFE4F9083861768
:1001300018F491E0950F01C0952FF901EE5FFE4F85
:1001400090838F5F8A30E8F2CF91089580932201E7
:1001500008952FEF30E0281B310930938B00209356
:100160008A008093210108952FEF30E0281B310988
:10017000309389002093880080932001089584B1F2
:10018000866284B985B1806285B980E00E94A6004C
:1001900080E00E94A90080E00E94B40020E00FC02F
:1001A000822F90E0FC01EA5EFE4F1082FC01E45FCA
:1001B000FE4F1082FC01EE5FFE4F10822F5F2A304F
:1001C00078F3089580912201089580912101089586
:1001D0008091200108958091250108958091240146
:1001E000089580912301089580932501609324014F
:1001F000409323010E9453000895CF93DF93EC01B5
:100200000E94E200CA5EDE4F9881890F0E94A6001C
:10021000DF91CF910895CF93DF93EC010E94E50029
:10022000C45FDE4F9881890F0E94A900DF91CF91B2
:100230000895CF93DF93EC010E94E800CE5FDE4F7C
:100240009881890F0E94B400DF91CF910895CF93D8
:10025000DF93EC010E94E200E9E0F0E0EC1BFD0B13
:10026000EA5EFE4F9081891B0E94A600DF91CF912C
:100270000895CF93DF93EC010E94E500E9E0F0E000
:10028000EC1BFD0BE45FFE4F9081891B0E94A900CF
:10029000DF91CF910895CF93DF93EC010E94E800A6
:1002A000E9E0F0E0EC1BFD0BEE5FFE4F9081891B57
:1002B0000E94B400DF91CF9108950E946E020E94C7
:1002C000A0020E94BF000E94760148EC6AE080E034
:1002D0000E94F4000E94640284B1806184B985B1F7
:1002E0008F7E85B978940E942302FDCF83E08093AE
:1002F000280110922701109226010895809126016D
:100300009091270101969093270180932601809177
:100310002801813009F448C000F1823009F461C03D
:10032000833009F08FC085B1806185B980E00E947B
:10033000A60080E00E94A90080E00E94B4008091A5
:10034000260190912701449709F07CC01092280162
:100350001092270110922601089585B1806185B918
:10036000809126019091270101970E94FD008091C4
:1003700026019091270101970E940B01809126018F
:100380009091270101970E94190180912601909177
:1003900027010A9709F056C081E080932801109246
:1003A000270110922601089585B18F7E85B90E949C
:1003B000EB000E94A6000E94EE000E94A9000E948D
:1003C000F1000E94B400809126019091270144978A
:1003D000C9F582E08093280110922701109226012E
:1003E000089585B1806185B90E94EB00882339F0BA
:1003F000809126019091270101970E9427010E9478
:10040000EE00882339F08091260190912701019711
:100410000E9439010E94F100882339F08091260161
:100420009091270101970E944B01809126019091A4
:1004300027010A9739F483E080932801109227015D
:1004400010922601089580912901882321F00E94AD
:100450007E0110922901089580910001909101017F
:1004600001969093010180930001C29739F481E0D5
:100470008093290110920101109200010E94410213
:10048000089580912A0190912B01019690932B0160
:1004900080932A018F3F910549F040F010922B0183
:1004A00010922A0185B18F7D85B9089520912C0184
:1004B00030E08217930720F485B18F7D85B90895C8
:1004C00085B1806285B9089584B1806284B985B1AF
:1004D0008F7D85B981E080932C01089584B5826079
:1004E00084BD85B5836085BD89EF87BDEEE6F0E00C
:1004F00080818260808308951F920F920FB60F92C1
:1005000011242F933F934F935F936F937F938F9318
:100510009F93AF93BF93EF93FF930E942C02FF91A1
:10052000EF91BF91AF919F918F917F916F915F916B
:100530004F913F912F910F900FBE0F901F901895E4
:10054000E0E8F0E08081816A8083E1E8F0E080818A
:0A0550008D6080830895F894FFCFBA
:02055A0031006E
:00000001FF
