:100000000C9434000C9446000C9446000C9446006A
:100010000C9446000C9446000C9446000C94460048
:100020000C9446000C9446000C9446000C94460038
:100030000C9446000C9446000C9469000C94460005
:100040000C9446000C9446000C9446000C94460018
:100050000C9446000C9446000C9446000C94460008
:100060000C9446000C94460011241FBECFEFD8E03C
:10007000DEBFCDBF21E0A0E0B1E001C01D92A13004
:10008000B207E1F70E947A000C948C000C940000F7
:10009000E0E8F0E08081816A8083E1E8F0E080813F
:1000A0008D608083109289001092880010928B00DE
:1000B00010928A00089584B5826084BD85B58360FE
:1000C00085BDEEE6F0E080818260808389EF87BDA8
:1000D00008951F920F920FB60F9211248F93809163
:1000E00000018F5F809300018F910F900FBE0F90E2
:1000F0001F9018950E9448000E945B0084B18662A0
:1001000084B985B1806285B984B1806184B985B1D3
:0C011000806185B97894FFCFF894FFCF90
:00000001FF
