:100000000C9434000C9451000C9451000C94510049
:100010000C9451000C9451000C9451000C9451001C
:100020000C9451000C9451000C9451000C9451000C
:100030000C9451000C9451000C9403030C94510047
:100040000C9451000C9451000C9451000C945100EC
:100050000C9451000C9451000C9451000C945100DC
:100060000C9451000C94510011241FBECFEFD8E026
:10007000DEBFCDBF11E0A0E0B1E0E0E3FAE002C0F6
:1000800005900D92A630B107D9F722E0A6E0B1E0C5
:1000900001C01D92A834B207E1F70E9487010C94B9
:1000A00016050C94000081E080937E0087E8809321
:1000B0007A00ECE7F0E0108280818064808308950C
:1000C00080910601811108C0EAE7F0E08081806438
:1000D000808381E08093060180917A000895EAE7A9
:1000E000F0E080818064808380917A0084FFFCCF7F
:1000F000EAE7F0E0808180618083809178009091D0
:10010000790090930801809307010895CF9399E2B5
:10011000899FA12D1124A295AF7024E6C82FA29F1C
:10012000C0191124699F712D112472957F70B62F0B
:10013000729FB0191124499F512D112452955F705F
:10014000642F529F6019112480E021C0282F30E0D5
:100150008C1718F491E09A0F01C09A2FF901EF5211
:10016000FE4F90838B1718F491E0970F01C0972FE3
:10017000F901E359FE4F9083861718F491E0950F2B
:1001800001C0952FF901E75FFE4F90838F5F8436A2
:10019000E8F2CF910895CF93C82F0E94F202C09346
:1001A0003702CF9108952FEF30E0281B31093093AB
:1001B0008B0020938A008093360208952FEF30E061
:1001C000281B3109309389002093880080933502E1
:1001D000089584B1866284B985B1806285B980E072
:1001E0000E94CB0080E00E94D30080E00E94DE00ED
:1001F00020E00FC0822F90E0FC01EF52FE4F1082F2
:10020000FC01E359FE4F1082FC01E75FFE4F1082B4
:100210002F5F243678F308958091370208958091F6
:100220003602089580913502089580913A0208952A
:1002300080913902089580913802089580933A029E
:1002400060933902409338020E9486000895CF934C
:10025000DF93EC010E940C01CF52DE4F9881890F91
:100260000E94CB00DF91CF910895CF93DF93EC01F3
:100270000E940F01C359DE4F9881890F0E94D3005D
:10028000DF91CF910895CF93DF93EC010E9412018B
:10029000C75FDE4F9881890F0E94DE00DF91CF910A
:1002A0000895CF93DF93EC010E940C01E3E6F0E0A8
:1002B000EC1BFD0BEF52FE4F9081891B0E94CB007F
:1002C000DF91CF910895CF93DF93EC010E940F014E
:1002D000E3E6F0E0EC1BFD0BE359FE4F9081891B38
:1002E0000E94D300DF91CF910895CF93DF93EC016B
:1002F0000E941201E3E6F0E0EC1BFD0BE75FFE4F0E
:100300009081891B0E94DE00DF91CF9108950E94A9
:10031000F5020E9427030E94E9000E94A20140E822
:1003200068EC88EC0E941E010E9453000E94EB02C0
:1003300084B1806184B985B18F7E85B978940E943B
:10034000A002FDCF83E080934302109242021092FC
:10035000410210923D0210923E0210923F02109212
:10036000400284E690E090933C0280933B02089523
:10037000CF92DF92EF92FF920E946F00823391053D
:1003800038F488EE93E0909301018093000130C02F
:100390008D3221E0920738F084E690E090930101DD
:1003A0008093000125C0BC0180E090E00E94CE0354
:1003B00020913D0230913E0240913F025091400217
:1003C0000E945C040E94C9046B017C0160913B02A5
:1003D00070913C0280E090E00E94CE03A70196015C
:1003E0000E9432030E949F037093010160930001F9
:1003F000FF90EF90DF90CF9008958091410290910F
:1004000042020196909342028093410280914302FE
:10041000813009F450C038F1823009F46AC0833069
:1004200009F08DC085B1806185B980E00E94CB0064
:1004300080E00E94D30080E00E94DE000E94B801AC
:10044000209141023091420280910001909101017E
:100450002817390708F473C0109243021092420221
:1004600010924102089585B1806185B98091410261
:100470009091420201970E94270180914102909140
:10048000420201970E9435018091410290914202FF
:1004900001970E944301809141029091420284366B
:1004A000910509F04CC081E0809343021092420212
:1004B00010924102089585B18F7E85B90E94150181
:1004C0000E94CB000E9418010E94D3000E941B01D1
:1004D0000E94DE008091410290914202883C910589
:1004E00071F582E080934302109242021092410221
:1004F000089585B1806185B9809141029091420251
:1005000001970E945101809141029091420201970E
:100510000E946301809141029091420201970E94E2
:10052000750180914102909142028436910539F41F
:1005300083E0809343021092420210924102089598
:1005400080914502882329F00E94FD011092450206
:10055000089580914402882321F00E946000109247
:1005600044020895809102019091030101969093B5
:100570000301809302018E34910539F481E0809368
:10058000450210920301109202010E94C8020895D0
:100590008091460290914702019690934702809382
:1005A00046028F3F910549F040F0109247021092A9
:1005B000460285B1806285B908952091040130E03A
:1005C0008217930720F485B18F7D85B9089585B191
:1005D000806285B9089584B1806284B985B18F7DC8
:1005E00085B9089580930401089584B5826084BD1F
:1005F00085B5826085BD8FE787BDEEE6F0E080813E
:100600008260808308951F920F920FB60F9211247B
:100610002F933F934F935F936F937F938F939F930A
:10062000AF93BF93EF93FF930E94B202FF91EF91BC
:10063000BF91AF919F918F917F916F915F914F91FA
:100640003F912F910F900FBE0F901F901895E0E8EB
:10065000F0E08081816A8083E1E8F0E080818D6054
:10066000808308955058BB27AA270E944A030C9400
:1006700022040E94140438F00E941B0420F039F474
:100680009F3F19F426F40C9411040EF4E095E7FB57
:100690000C940B04E92F0E94330458F3BA17620735
:1006A00073078407950720F079F4A6F50C94550498
:1006B0000EF4E0950B2EBA2FA02D0B01B90190017D
:1006C0000C01CA01A0011124FF27591B99F0593FC1
:1006D00050F4503E68F11A16F040A22F232F342F09
:1006E0004427585FF3CF469537952795A795F04057
:1006F0005395C9F77EF41F16BA0B620B730B840B6C
:10070000BAF09150A1F0FF0FBB1F661F771F881F23
:10071000C2F70EC0BA0F621F731F841F48F487957B
:1007200077956795B795F7959E3F08F0B0CF93956D
:10073000880F08F09927EE0F9795879508950E94E6
:100740003B0488F09F5798F0B92F9927B751B0F024
:10075000E1F0660F771F881F991F1AF0BA95C9F745
:1007600014C0B13091F00E945504B1E008950C948A
:100770005504672F782F8827B85F39F0B93FCCF33D
:10078000869577956795B395D9F73EF490958095C2
:10079000709561957F4F8F4F9F4F0895E89409C0E2
:1007A00097FB3EF490958095709561957F4F8F4FA4
:1007B0009F4F9923A9F0F92F96E9BB279395F695BA
:1007C000879577956795B795F111F8CFFAF4BB0F38
:1007D00011F460FF1BC06F5F7F4F8F4F9F4F16C09C
:1007E000882311F096E911C0772321F09EE8872F26
:1007F000762F05C0662371F096E8862F70E060E0E2
:100800002AF09A95660F771F881FDAF7880F96955A
:10081000879597F9089597F99F6780E870E060E001
:1008200008959FEF80EC089500240A941616170689
:1008300018060906089500240A94121613061406D1
:1008400005060895092E0394000C11F4882352F034
:10085000BB0F40F4BF2B11F460FF04C06F5F7F4FEC
:100860008F4F9F4F089557FD9058440F551F59F0D3
:100870005F3F71F04795880F97FB991F61F09F3F8D
:1008800079F087950895121613061406551FF2CFB6
:100890004695F1DF08C0161617061806991FF1CF06
:1008A00086957105610508940895E894BB2766272D
:1008B0007727CB0197F908950E946F040C942204C6
:1008C0000E94140438F00E941B0420F0952311F0BC
:1008D0000C940B040C94110411240C9456040E94E3
:1008E000330470F3959FC1F3950F50E0551F629F3D
:1008F000F001729FBB27F00DB11D639FAA27F00D79
:10090000B11DAA1F649F6627B00DA11D661F829F9F
:100910002227B00DA11D621F739FB00DA11D621F84
:10092000839FA00D611D221F749F3327A00D611DA1
:10093000231F849F600D211D822F762F6A2F112483
:100940009F5750409AF0F1F088234AF0EE0FFF1FB6
:10095000BB1F661F771F881F91505040A9F79E3F0D
:10096000510580F00C940B040C9456045F3FE4F3A3
:10097000983ED4F3869577956795B795F795E79563
:100980009F5FC1F7FE2B880F911D9695879597F96C
:1009900008950E943B04E8F09E37E8F09639B8F4D9
:1009A0009E3848F4672F782F8827985FF9CF86956F
:1009B0007795679593959539D0F3B62FB1706B0FF6
:1009C000711D811D20F487957795679593950C94FB
:1009D000ED040C9408050C945604882371F47723D5
:1009E00021F09850872B762F07C0662311F49927A2
:1009F0000DC09051862B70E060E02AF09A95660F4A
:100A0000771F881FDAF7880F9695879597F90895CD
:100A10009F3F31F0915020F4879577956795B79572
:100A2000880F911D9695879597F90895F894FFCFB3
:060A300014000C03FF009E
:00000001FF
