:100000000C9434000C9451000C9451000C94510049
:100010000C9451000C9451000C9451000C9451001C
:100020000C9451000C9451000C9451000C9451000C
:100030000C9451000C9451000C940F030C9451003B
:100040000C9451000C9451000C9451000C945100EC
:100050000C9451000C9451000C9451000C945100DC
:100060000C9451000C94510011241FBECFEFD8E026
:10007000DEBFCDBF11E0A0E0B1E0E8E4FAE002C0ED
:1000800005900D92A630B107D9F721E0A6E0B1E0C6
:1000900001C01D92AA33B207E1F70E9495010C94AA
:1000A00022050C94000081E080937E0087E8809315
:1000B0007A00ECE7F0E0108280818064808308950C
:1000C00080910601811108C0EAE7F0E08081806438
:1000D000808381E08093060180917A000895EAE7A9
:1000E000F0E080818064808380917A0084FFFCCF7F
:1000F000EAE7F0E0808180618083809178009091D0
:10010000790090930801809307010895CF935DECE7
:10011000859FA12D1124A695A695A6952A2F220F7D
:10012000922F990F990F920FC82FC91B659F712DA0
:100130001124769576957695972F990F892F880FAC
:10014000880F890FB62FB81B459F512D1124569546
:1001500056955695952F990F892F880F880F890FDF
:10016000642F681B80E021C0282F30E08C1718F422
:1001700091E09A0F01C09A2FF901E35EFE4F908340
:100180008B1718F491E0970F01C0972FF901ED5EDE
:10019000FE4F9083861718F491E0950F01C0952FBC
:1001A000F901E75FFE4F90838F5F8A30E8F2CF91CD
:1001B0000895CF93C82F0E94FE02C0932901CF91CA
:1001C00008952FEF30E0281B310930938B002093E6
:1001D0008A008093280108952FEF30E0281B310911
:1001E000309389002093880080932701089584B17B
:1001F000866284B985B1806285B980E00E94D900A9
:1002000080E00E94E10080E00E94EC0020E00FC04E
:10021000822F90E0FC01E35EFE4F1082FC01ED5E58
:10022000FE4F1082FC01E75FFE4F10822F5F2A30E5
:1002300078F3089580912901089580912801089507
:1002400080912701089580912C01089580912B01C0
:10025000089580912A01089580932C0160932B01C9
:1002600040932A010E9486000895CF93DF93EC010A
:100270000E941A01C35EDE4F9881890F0E94D90047
:10028000DF91CF910895CF93DF93EC010E941D0180
:10029000CD5EDE4F9881890F0E94E100DF91CF9102
:1002A0000895CF93DF93EC010E942001C75FDE4FDA
:1002B0009881890F0E94EC00DF91CF910895CF9330
:1002C000DF93EC010E941A01E9E0F0E0EC1BFD0B6A
:1002D000E35EFE4F9081891B0E94D900DF91CF9190
:1002E0000895CF93DF93EC010E941D01E9E0F0E057
:1002F000EC1BFD0BED5EFE4F9081891B0E94E1001F
:10030000DF91CF910895CF93DF93EC010E942001FC
:10031000E9E0F0E0EC1BFD0BE75FFE4F9081891BED
:100320000E94EC00DF91CF9108950E9401030E948A
:1003300033030E94F7000E94B00145EE6FEF8CEC92
:100340000E942C010E9453000E94F70284B1806138
:1003500084B985B18F7E85B978940E94AC02FDCFB7
:1003600083E080933501109234011092330180E0D4
:1003700090E0A0E8BFEB80932F0190933001A09311
:100380003101B093320110922E0110922D01089587
:10039000CF92DF92EF92FF920E946F008E3691050E
:1003A00038F484E690E090930101809300012FC01F
:1003B000893C910538F08AE090E0909301018093A8
:1003C000000125C0BC0180E090E00E94DA0320918A
:1003D0002F013091300140913101509132010E9442
:1003E00068040E94D5046B017C0160912D0170911D
:1003F0002E0180E090E00E94DA03A70196010E949E
:100400003E030E94AB037093010160930001FF90D3
:10041000EF90DF90CF900895809133019091340157
:10042000019690933401809333018091350181309E
:1004300009F44FC038F1823009F468C0833009F004
:100440008AC085B1806185B980E00E94D90080E0D2
:100450000E94E10080E00E94EC000E94C80120910F
:1004600033013091340180910001909101012817EE
:10047000390708F470C010923501109234011092BF
:100480003301089585B1806185B9809133019091E0
:10049000340101970E94350180913301909134011C
:1004A00001970E944301809133019091340101979B
:1004B0000E94510180913301909134010A9709F013
:1004C0004AC081E0809335011092340110923301CB
:1004D000089585B18F7E85B90E9423010E94D900BD
:1004E0000E9426010E94E1000E9429010E94EC0066
:1004F0008091330190913401449769F582E08093B3
:1005000035011092340110923301089585B1806154
:1005100085B9809133019091340101970E945F0168
:10052000809133019091340101970E947101809173
:1005300033019091340101970E948301809133012E
:10054000909134010A9739F483E080933501109239
:10055000340110923301089580913701882329F0E6
:100560000E940C0210923701089580913601882371
:1005700021F00E94600010923601089580910201DE
:1005800090910301019690930301809302018D30B5
:10059000934039F481E08093370110920301109267
:1005A00002010E94D402089580913801909139018E
:1005B000019690933901809338018F3F910549F05E
:1005C00040F0109239011092380185B1806285B9EE
:1005D00008952091040130E08217930720F485B13B
:1005E0008F7D85B9089585B1806285B9089584B1FC
:1005F000806284B985B18F7D85B9089580930401A7
:10060000089584B5826084BD85B5826085BD8FE71D
:1006100087BDEEE6F0E080818260808308951F92BE
:100620000F920FB60F9211242F933F934F935F9326
:100630006F937F938F939F93AF93BF93EF93FF93AA
:100640000E94BE02FF91EF91BF91AF919F918F9158
:100650007F916F915F914F913F912F910F900FBEBE
:100660000F901F901895E0E8F0E08081816A808308
:10067000E1E8F0E080818D60808308955058BB27C9
:10068000AA270E9456030C942E040E94200438F0DE
:100690000E94270420F039F49F3F19F426F40C94AB
:1006A0001D040EF4E095E7FB0C941704E92F0E945B
:1006B0003F0458F3BA17620773078407950720F0C1
:1006C00079F4A6F50C9461040EF4E0950B2EBA2F84
:1006D000A02D0B01B90190010C01CA01A001112448
:1006E000FF27591B99F0593F50F4503E68F11A16F4
:1006F000F040A22F232F342F4427585FF3CF469585
:1007000037952795A795F0405395C9F77EF41F16A6
:10071000BA0B620B730B840BBAF09150A1F0FF0F70
:10072000BB1F661F771F881FC2F70EC0BA0F621F5C
:10073000731F841F48F4879577956795B795F7954C
:100740009E3F08F0B0CF9395880F08F09927EE0FE1
:100750009795879508950E94470488F09F5798F0D1
:10076000B92F9927B751B0F0E1F0660F771F881FB6
:10077000991F1AF0BA95C9F714C0B13091F00E94D0
:100780006104B1E008950C946104672F782F8827E5
:10079000B85F39F0B93FCCF3869577956795B395F7
:1007A000D9F73EF490958095709561957F4F8F4F66
:1007B0009F4F0895E89409C097FB3EF4909580956B
:1007C000709561957F4F8F4F9F4F9923A9F0F92F17
:1007D00096E9BB279395F695879577956795B79595
:1007E000F111F8CFFAF4BB0F11F460FF1BC06F5F7B
:1007F0007F4F8F4F9F4F16C0882311F096E911C08D
:10080000772321F09EE8872F762F05C0662371F0AD
:1008100096E8862F70E060E02AF09A95660F771FC1
:10082000881FDAF7880F9695879597F9089597F9B5
:100830009F6780E870E060E008959FEF80EC089586
:1008400000240A94161617061806090608950024AF
:100850000A9412161306140605060895092E039429
:10086000000C11F4882352F0BB0F40F4BF2B11F49D
:1008700060FF04C06F5F7F4F8F4F9F4F089557FDFC
:100880009058440F551F59F05F3F71F04795880FFE
:1008900097FB991F61F09F3F79F087950895121695
:1008A00013061406551FF2CF4695F1DF08C0161641
:1008B00017061806991FF1CF8695710561050894F2
:1008C0000895E894BB2766277727CB0197F9089509
:1008D0000E947B040C942E040E94200438F00E9495
:1008E000270420F0952311F00C9417040C941D0498
:1008F00011240C9462040E943F0470F3959FC1F38D
:10090000950F50E0551F629FF001729FBB27F00DBD
:10091000B11D639FAA27F00DB11DAA1F649F662712
:10092000B00DA11D661F829F2227B00DA11D621F61
:10093000739FB00DA11D621F839FA00D611D221F1B
:10094000749F3327A00D611D231F849F600D211DFF
:10095000822F762F6A2F11249F5750409AF0F1F082
:1009600088234AF0EE0FFF1FBB1F661F771F881FEB
:1009700091505040A9F79E3F510580F00C94170408
:100980000C9462045F3FE4F3983ED4F38695779528
:100990006795B795F795E7959F5FC1F7FE2B880F91
:1009A000911D9695879597F908950E944704E8F060
:1009B0009E37E8F09639B8F49E3848F4672F782FC0
:1009C0008827985FF9CF86957795679593959539A0
:1009D000D0F3B62FB1706B0F711D811D20F4879578
:1009E0007795679593950C94F9040C9414050C94E1
:1009F0006204882371F4772321F09850872B762F97
:100A000007C0662311F499270DC09051862B70E022
:100A100060E02AF09A95660F771F881FDAF7880F33
:100A20009695879597F908959F3F31F0915020F45E
:100A3000879577956795B795880F911D96958795BA
:080A400097F90895F894FFCF27
:060A480014000C03FF0086
:00000001FF
