:100000000C9434000C943E000C943E000C943E0082
:100010000C943E000C943E000C943E000C943E0068
:100020000C943E000C943E000C943E000C94610035
:100030000C943E000C943E000C943E000C943E0048
:100040000C943E000C943E000C943E000C943E0038
:100050000C943E000C943E000C943E000C943E0028
:100060000C943E000C943E0011241FBECFEFD8E04C
:10007000DEBFCDBF0E9473000C948B000C94000077
:10008000E0E8F0E08081816A8083E1E8F0E080814F
:100090008C608083109289001092880010928B00EF
:1000A00010928A00089584B5826084BD85B584600D
:1000B00085BDEEE6F0E08081826080838EE387BDBF
:1000C00008951F920F920FB60F9211248F939F9352
:1000D00095B180E1892785B99F918F910F900FBECF
:1000E0000F901F9018950E9440000E94530084B109
:1000F000866284B985B1806285B984B1806184B932
:1001000085B18F7E85B9E8E8F0E080819181019624
:0A01100091838083F8CFF894FFCFAD
:00000001FF
