S00B00005450342E7372656341
S11300000C9434000C9451000C9451000C94510045
S11300100C9451000C9451000C9451000C94510018
S11300200C9451000C9451000C9451000C94510008
S11300300C9451000C9451000C9416030C94510030
S11300400C9451000C9451000C9451000C945100E8
S11300500C9451000C9451000C9451000C945100D8
S11300600C9451000C94510011241FBECFEFD8E022
S1130070DEBFCDBF11E0A0E0B1E0E6E5FAE002C0EA
S113008005900D92A830B107D9F721E0A8E0B1E0BE
S113009001C01D92AC33B207E1F70E9493010C94A6
S11300A029050C94000081E080937E0087E880930A
S11300B07A00ECE7F0E01082808180648083089508
S11300C080910801811108C0EAE7F0E08081806432
S11300D0808381E08093080180917A0084FD0FC0C1
S11300E0EAE7F0E0808180618083809178009091DC
S11300F0790090930A01809309011092080180917C
S1130100090190910A010895CF935DEC859FA12D7B
S11301101124A695A695A6952A2F220F922F990F02
S1130120990F920FC82FC91B659F712D11247695C5
S113013076957695972F990F892F880F880F890FB9
S1130140B62FB81B459F512D11245695569556959B
S1130150952F990F892F880F880F890F642F681B9B
S113016080E021C0282F30E08C1718F491E09A0F1A
S113017001C09A2FF901E15EFE4F90838B1718F4AA
S113018091E0970F01C0972FF901EB5EFE4F90832A
S1130190861718F491E0950F01C0952FF901E55FDA
S11301A0FE4F90838F5F8A30E8F2CF910895CF930A
S11301B0C82F0E940503C0932B01CF9108952FEF00
S11301C030E0281B310930938B0020938A00809300
S11301D02A0108952FEF30E0281B3109309389005C
S11301E02093880080932901089584B1866284B99C
S11301F085B1806285B980E00E94D70080E00E94CA
S1130200DF0080E00E94EA0020E00FC0822F90E02F
S1130210FC01E15EFE4F1082FC01EB5EFE4F10829A
S1130220FC01E55FFE4F10822F5F2A3078F30895BA
S113023080912B01089580912A01089580912901CC
S1130240089580912E01089580912D010895809143
S11302502C01089580932E0160932D0140932C016D
S11302600E9484000895CF93DF93EC010E9418014B
S1130270C15EDE4F9881890F0E94D700DF91CF9134
S11302800895CF93DF93EC010E941B01CB5EDE4FF8
S11302909881890F0E94DF00DF91CF910895CF9359
S11302A0DF93EC010E941E01C55FDE4F9881890F28
S11302B00E94EA00DF91CF910895CF93DF93EC0180
S11302C00E941801E9E0F0E0EC1BFD0BE15EFE4F3B
S11302D09081891B0E94D700DF91CF910895CF931D
S11302E0DF93EC010E941B01E9E0F0E0EC1BFD0B45
S11302F0EB5EFE4F9081891B0E94DF00DF91CF915E
S11303000895CF93DF93EC010E941E01E9E0F0E031
S1130310EC1BFD0BE55FFE4F9081891B0E94EA00F8
S1130320DF91CF9108950E9408030E943A030E942E
S1130330F5000E94AE0145EE6FEF8CEC0E942A019D
S11303400E9453000E94FE0284B1806184B985B189
S11303508F7E85B978940E94AA02FDCF83E08093B2
S11303603701109236011092350180E090E0A0E848
S1130370BFEB8093310190933201A0933301B0938A
S113038034011092300110922F010895CF92DF9220
S1130390EF92FF920E9460008436910538F484E65F
S11303A090E090930101809300012FC0813A910560
S11303B038F088E290E0909301018093000125C019
S11303C0BC0180E090E00E94E10320913101309172
S11303D0320140913301509134010E946F040E9414
S11303E0DC046B017C0160912F017091300180E08D
S11303F090E00E94E103A70196010E9445030E9438
S1130400B2037093010160930001FF90EF90DF90BD
S1130410CF90089580913501909136010196909383
S113042036018093350180913701813009F44FC042
S113043038F1823009F468C0833009F08AC085B18C
S1130440806185B980E00E94D70080E00E94DF00CF
S113045080E00E94EA000E94C6012091350130919B
S1130460360180910001909101012817390708F4A1
S113047070C0109237011092360110923501089520
S113048085B1806185B980913501909136010197DC
S11304900E943301809135019091360101970E94A9
S11304A04101809135019091360101970E944F01DD
S11304B080913501909136010A9709F04AC081E094
S11304C0809337011092360110923501089585B159
S11304D08F7E85B90E9421010E94D7000E942401C9
S11304E00E94DF000E9427010E94EA0080913501EA
S11304F090913601449769F582E080933701109218
S1130500360110923501089585B1806185B98091D5
S113051035019091360101970E945D01809135016A
S11305209091360101970E946F018091350190915D
S1130530360101970E948101809135019091360125
S11305400A9739F483E080933701109236011092B0
S11305503501089580913901882321F00E940A020F
S1130560109239010895809104019091050101963A
S113057090930501809304018D30934039F481E018
S113058080933901109205011092040180910201B7
S113059090910301019690930301809302010A97BD
S11305A039F481E080933801109203011092020122
S11305B00E94DB02089580913A0190913B010196DB
S11305C090933B0180933A018F3F910549F040F0AD
S11305D010923B0110923A0185B1806285B9089569
S11305E02091060130E08217930720F485B18F7DB6
S11305F085B9089585B1806285B9089584B1806212
S113060084B985B18F7D85B90895809306010895D5
S113061084B5826084BD85B5826085BD8FE787BD62
S1130620EEE6F0E080818260808308951F920F924D
S11306300FB60F9211242F933F934F935F936F93B1
S11306407F938F939F93AF93BF93EF93FF930E94F6
S1130650B302FF91EF91BF91AF919F918F917F91E1
S11306606F915F914F913F912F910F900FBE0F901B
S11306701F901895E0E8F0E08081816A8083E1E8CA
S1130680F0E080818D60808308955058BB27AA27AD
S11306900E945D030C9435040E94270438F00E94E4
S11306A02E0420F039F49F3F19F426F40C9424040A
S11306B00EF4E095E7FB0C941E04E92F0E94460417
S11306C058F3BA17620773078407950720F079F483
S11306D0A6F50C9468040EF4E0950B2EBA2FA02D09
S11306E00B01B90190010C01CA01A0011124FF27DB
S11306F0591B99F0593F50F4503E68F11A16F040D6
S1130700A22F232F342F4427585FF3CF46953795D4
S11307102795A795F0405395C9F77EF41F16BA0B99
S1130720620B730B840BBAF09150A1F0FF0FBB1F47
S1130730661F771F881FC2F70EC0BA0F621F731F90
S1130740841F48F4879577956795B795F7959E3FED
S113075008F0B0CF9395880F08F09927EE0F97957E
S1130760879508950E944E0488F09F5798F0B92FFA
S11307709927B751B0F0E1F0660F771F881F991FD2
S11307801AF0BA95C9F714C0B13091F00E94680408
S1130790B1E008950C946804672F782F8827B85F18
S11307A039F0B93FCCF3869577956795B395D9F72A
S11307B03EF490958095709561957F4F8F4F9F4F34
S11307C00895E89409C097FB3EF490958095709540
S11307D061957F4F8F4F9F4F9923A9F0F92F96E989
S11307E0BB279395F695879577956795B795F111FE
S11307F0F8CFFAF4BB0F11F460FF1BC06F5F7F4F9B
S11308008F4F9F4F16C0882311F096E911C07723AC
S113081021F09EE8872F762F05C0662371F096E8B5
S1130820862F70E060E02AF09A95660F771F881F84
S1130830DAF7880F9695879597F9089597F99F6742
S113084080E870E060E008959FEF80EC0895002454
S11308500A941616170618060906089500240A9421
S113086012161306140605060895092E0394000CA7
S113087011F4882352F0BB0F40F4BF2B11F460FF36
S113088004C06F5F7F4F8F4F9F4F089557FD90585F
S1130890440F551F59F05F3F71F04795880F97FB40
S11308A0991F61F09F3F79F08795089512161306FA
S11308B01406551FF2CF4695F1DF08C01616170629
S11308C01806991FF1CF869571056105089408955E
S11308D0E894BB2766277727CB0197F908950E94F0
S11308E082040C9435040E94270438F00E942E04DC
S11308F020F0952311F00C941E040C94240411246C
S11309000C9469040E94460470F3959FC1F3950FFB
S113091050E0551F629FF001729FBB27F00DB11D7F
S1130920639FAA27F00DB11DAA1F649F6627B00D0F
S1130930A11D661F829F2227B00DA11D621F739FF8
S1130940B00DA11D621F839FA00D611D221F749F06
S11309503327A00D611D231F849F600D211D822F4D
S1130960762F6A2F11249F5750409AF0F1F0882374
S11309704AF0EE0FFF1FBB1F661F771F881F9150A1
S11309805040A9F79E3F510580F00C941E040C942E
S113099069045F3FE4F3983ED4F3869577956795B1
S11309A0B795F795E7959F5FC1F7FE2B880F911DCB
S11309B09695879597F908950E944E04E8F09E371E
S11309C0E8F09639B8F49E3848F4672F782F8827D2
S11309D0985FF9CF86957795679593959539D0F378
S11309E0B62FB1706B0F711D811D20F4879577951B
S11309F0679593950C9400050C941B050C9469045D
S1130A00882371F4772321F09850872B762F07C021
S1130A10662311F499270DC09051862B70E060E095
S1130A202AF09A95660F771F881FDAF7880F969534
S1130A30879597F908959F3F31F0915020F4879559
S1130A4077956795B795880F911D9695879597F932
S1090A500895F894FFCFA5
S10B0A56140008003100FF0048
S9030000FC
