:100000000C9434000C9451000C9451000C94510049
:100010000C9451000C9451000C9451000C9451001C
:100020000C9451000C9451000C9451000C9451000C
:100030000C9451000C9451000C94C2020C94510089
:100040000C9451000C9451000C9451000C945100EC
:100050000C9451000C9451000C9451000C945100DC
:100060000C9451000C94510011241FBECFEFD8E026
:10007000DEBFCDBF11E0A0E0B1E0E6EEF5E002C0EA
:1000800005900D92A630B107D9F721E0A6E0B1E0C6
:1000900001C01D92A933B207E1F70E9486010C94BA
:1000A000F1020C94000081E080937E0087E8809349
:1000B0007A00ECE7F0E0108280818064808308950C
:1000C000EAE7F0E080818064808380917A0084FF99
:1000D000FCCFEAE7F0E08081806180838091780046
:1000E0009091790090930701809306010895CF9332
:1000F0005DEC859FA12D1124A695A695A6952A2F86
:10010000220F922F990F990F920FC82FC91B659F2D
:10011000712D1124769576957695972F990F892FC5
:10012000880F880F890FB62FB81B459F512D1124BA
:10013000569556955695952F990F892F880F880FAC
:10014000890F642F681B80E021C0282F30E08C17B6
:1001500018F491E09A0F01C09A2FF901E45EFE4F66
:1001600090838B1718F491E0970F01C0972FF90136
:10017000EE5EFE4F9083861718F491E0950F01C054
:10018000952FF901E85FFE4F90838F5F8A30E8F288
:10019000CF910895CF93C82F0E94B102C093280138
:1001A000CF9108952FEF30E0281B310930938B0059
:1001B00020938A008093270108952FEF30E0281BB9
:1001C0003109309389002093880080932601089597
:1001D00084B1866284B985B1806285B980E00E946D
:1001E000CA0080E00E94D20080E00E94DD0020E092
:1001F0000FC0822F90E0FC01E45EFE4F1082FC01F4
:10020000EE5EFE4F1082FC01E85FFE4F10822F5F12
:100210002A3078F30895809128010895809127016C
:10022000089580912601089580912B010895809171
:100230002A01089580912901089580932B016093EC
:100240002A01409329010E9477000895CF93DF93FC
:10025000EC010E940B01C45EDE4F9881890F0E9461
:10026000CA00DF91CF910895CF93DF93EC010E94F4
:100270000E01CE5EDE4F9881890F0E94D200DF9181
:10028000CF910895CF93DF93EC010E941101C85FD5
:10029000DE4F9881890F0E94DD00DF91CF91089594
:1002A000CF93DF93EC010E940B01E9E0F0E0EC1B3F
:1002B000FD0BE45EFE4F9081891B0E94CA00DF9116
:1002C000CF910895CF93DF93EC010E940E01E9E0F6
:1002D000F0E0EC1BFD0BEE5EFE4F9081891B0E944F
:1002E000D200DF91CF910895CF93DF93EC010E946C
:1002F0001101E9E0F0E0EC1BFD0BE85FFE4F90819F
:10030000891B0E94DD00DF91CF9108950E94B40205
:100310000E94E6020E94E8000E94A10145EE6FEFF4
:100320008CEC0E941D010E9453000E94AA0284B11D
:10033000806184B985B18F7E85B978940E94560218
:10034000FDCF83E08093340110923301109232018B
:1003500010922E0110922F01109230011092310153
:1003600084E690E090932D0180932C0108950E94E3
:10037000600008958091320190913301019690932D
:1003800033018093320180913401813009F44BC0F4
:1003900018F1823009F464C0833009F086C085B159
:1003A000806185B980E00E94CA0080E00E94D2008E
:1003B00080E00E94DD000E94B7018091320190919F
:1003C00033018436910508F470C010923401109204
:1003D000330110923201089585B1806185B9809111
:1003E00032019091330101970E94260180913201E0
:1003F0009091330101970E943401809132019091D4
:10040000330101970E9442018091320190913301A2
:100410000A9709F04AC081E08093340110923301B9
:1004200010923201089585B18F7E85B90E94140122
:100430000E94CA000E9417010E94D2000E941A0165
:100440000E94DD008091320190913301449769F55B
:1004500082E08093340110923301109232010895AA
:1004600085B1806185B98091320190913301019706
:100470000E945001809132019091330101970E94B6
:100480006201809132019091330101970E947401C1
:1004900080913201909133010A9739F483E080937F
:1004A0003401109233011092320108958091360187
:1004B000882321F00E94BA0110923601089580919C
:1004C0000201909103010196909303018093020130
:1004D0008D30934039F481E080933601109203010E
:1004E0001092020180910001909101010196909378
:1004F0000101809300010A9739F481E0809335016E
:1005000010920101109200010E94870208958091CB
:10051000370190913801019690933801809337010B
:100520008F3F910549F040F0109238011092370149
:1005300085B1806285B908952091040130E0821769
:10054000930720F485B18F7D85B9089585B18062C8
:1005500085B9089584B1806284B985B18F7D85B9EC
:10056000089580930401089584B5826084BD85B5A3
:10057000826085BD8FE787BDEEE6F0E08081826016
:10058000808308951F920F920FB60F9211242F931C
:100590003F934F935F936F937F938F939F93AF930B
:1005A000BF93EF93FF930E945F02FF91EF91BF9182
:1005B000AF919F918F917F916F915F914F913F91FB
:1005C0002F910F900FBE0F901F901895E0E8F0E06C
:1005D0008081816A8083E1E8F0E080818D608083A2
:0605E0000895F894FFCF1E
:0605E60008003100FF00D7
:00000001FF
