S00B00005450342E7372656341
S11300000C9434000C9451000C9451000C94510045
S11300100C9451000C9451000C9451000C94510018
S11300200C9451000C9451000C9451000C94510008
S11300300C9451000C9451000C94DB020C9451006C
S11300400C9451000C9451000C9451000C945100E8
S11300500C9451000C9451000C9451000C945100D8
S11300600C9451000C94510011241FBECFEFD8E022
S1130070DEBFCDBF11E0A0E0B1E0E2E2F9E002C0F2
S113008005900D92A630B107D9F721E0A6E0B1E0C2
S113009001C01D92A133B207E1F70E9481010C94C3
S11300A08F040C94000081E080937E0087E88093A5
S11300B07A00ECE7F0E01082808180648083089508
S11300C0EAE7F0E080818064808380917A0084FF95
S11300D0FCCFEAE7F0E08081806180838091780042
S11300E09091790090930701809306010895CF932E
S11300F05DEC859FA12D1124A695A695A6952A2F82
S1130100220F922F990F990F920FC82FC91B659F29
S1130110712D1124769576957695972F990F892FC1
S1130120880F880F890FB62FB81B459F512D1124B6
S1130130569556955695952F990F892F880F880FA8
S1130140890F642F681B80E021C0282F30E08C17B2
S113015018F491E09A0F01C09A2FF901E45EFE4F62
S113016090838B1718F491E0970F01C0972FF90132
S1130170EE5EFE4F9083861718F491E0950F01C050
S1130180952FF901E85FFE4F90838F5F8A30E8F284
S1130190CF9108958093280108952FEF30E0281B14
S11301A0310930938B0020938A00809327010895AE
S11301B02FEF30E0281B3109309389002093880009
S11301C080932601089584B1866284B985B18062E2
S11301D085B980E00E94CA0080E00E94CD0080E0E2
S11301E00E94D80020E00FC0822F90E0FC01E45E62
S11301F0FE4F1082FC01EE5EFE4F1082FC01E85FB0
S1130200FE4F10822F5F2A3078F3089580912801E1
S11302100895809127010895809126010895809181
S11302202B01089580912A01089580912901089550
S113023080932B0160932A01409329010E94770047
S11302400895CF93DF93EC010E940601C45EDE4F54
S11302509881890F0E94CA00DF91CF910895CF93AE
S1130260DF93EC010E940901CE5EDE4F9881890F75
S11302700E94CD00DF91CF910895CF93DF93EC01DD
S11302800E940C01C85FDE4F9881890F0E94D8003C
S1130290DF91CF910895CF93DF93EC010E94060183
S11302A0E9E0F0E0EC1BFD0BE45EFE4F9081891B5E
S11302B00E94CA00DF91CF910895CF93DF93EC01A0
S11302C00E940901E9E0F0E0EC1BFD0BEE5EFE4F3D
S11302D09081891B0E94CD00DF91CF910895CF9327
S11302E0DF93EC010E940C01E9E0F0E0EC1BFD0B54
S11302F0E85FFE4F9081891B0E94D800DF91CF9167
S113030008950E94CD020E94FF020E94E3000E9411
S11303109C0144E16AE080E00E9418010E945300BD
S113032084B1806184B985B18F7E85B978940E9447
S11303308E020E94C202FBCF83E080932E011092B2
S11303402D0110922C0108950E94600088329105BD
S113035038F484E690E090930101809300010895BD
S1130360893C910538F088E290E0909301018093F4
S11303700001089548E2489F9001499F300D1124DF
S1130380369527953695279536952795ABE7B4E1AD
S11303900E94800496958795BC0180E090E00E94BD
S11303A0A6030E9434049B01AC0160E070E088EC79
S11303B092E40E940A030E94770370930101609300
S11303C00001089580912C0190912D010196909344
S11303D02D0180932C0180912E01813009F44FC0AE
S11303E038F1823009F468C0833009F096C085B1D1
S11303F0806185B980E00E94CA0080E00E94CD003F
S113040080E00E94D8000E94A40120912C01309128
S11304102D0180910001909101012817390708F4FA
S11304207CC010922E0110922D0110922C0108957F
S113043085B1806185B980912C0190912D0101973E
S11304400E94210180912C0190912D0101970E941D
S11304502F0180912C0190912D0101970E943D0163
S113046080912C0190912D010A9709F056C081E0EA
S113047080932E0110922D0110922C01089585B1C4
S11304808F7E85B90E940F010E94CA000E9412014A
S11304900E94CD000E9415010E94D80080912C0179
S11304A090912D014497C9F582E080932E0110921A
S11304B02D0110922C01089585B1806185B90E94A7
S11304C00F01882339F080912C0190912D0101971F
S11304D00E944B010E941201882339F080912C0163
S11304E090912D0101970E945D010E9415018823BE
S11304F039F080912C0190912D0101970E946F0198
S113050080912C0190912D010A9739F483E0809316
S11305102E0110922D0110922C010895809130012A
S1130520882329F00E94E2011092300108958091FD
S11305302F01811110922F0108958091040190914F
S1130540050101969093050180930401C29739F443
S113055081E0809330011092050110920401809192
S1130560020190910301019690930301809302018B
S11305700A9739F481E080932F01109203011092BD
S11305800201089583B7817F83BF83B7816083BFEE
S1130590889583B78E7F83BF089584B5826084BDB8
S11305A085B5836085BDEEE6F0E08081826080835E
S11305B089EF87BD08951F920F920FB60F921124F1
S11305C02F933F934F935F936F937F938F939F9357
S11305D0AF93BF93EF93FF930E949D02FF91EF911E
S11305E0BF91AF919F918F917F916F915F914F9147
S11305F03F912F910F900FBE0F901F901895E0E838
S1130600F0E08081816A8083E1E8F0E080818C60A1
S1130610808308955058BB27AA270E9422030C9474
S1130620FA030E94EC0338F00E94F30320F039F43B
S11306309F3F19F426F40C94E9030EF4E095E7FBCC
S11306400C94E303E92F0E940B0458F3BA176207D2
S113065073078407950720F079F4A6F50C942D040C
S11306600EF4E0950B2EBA2FA02D0B01B9019001C9
S11306700C01CA01A0011124FF27591B99F0593F0D
S113068050F4503E68F11A16F040A22F232F342F55
S11306904427585FF3CF469537952795A795F040A3
S11306A05395C9F77EF41F16BA0B620B730B840BB8
S11306B0BAF09150A1F0FF0FBB1F661F771F881F70
S11306C0C2F70EC0BA0F621F731F841F48F48795C8
S11306D077956795B795F7959E3F08F0B0CF9395BA
S11306E0880F08F09927EE0F9795879508950E9433
S11306F0130488F09F5798F0B92F9927B751B0F099
S1130700E1F0660F771F881F991F1AF0BA95C9F791
S113071014C0B13091F00E942D04B1E008950C94FE
S11307202D04672F782F8827B85F39F0B93FCCF3B1
S1130730869577956795B395D9F73EF4909580950E
S1130740709561957F4F8F4F9F4F0895E89409C02E
S113075097FB3EF490958095709561957F4F8F4FF0
S11307609F4F9923A9F0F92F96E9BB279395F69506
S1130770879577956795B795F111F8CFFAF4BB0F84
S113078011F460FF1BC06F5F7F4F8F4F9F4F16C0E8
S1130790882311F096E911C0772321F09EE8872F72
S11307A0762F05C0662371F096E8862F70E060E02E
S11307B02AF09A95660F771F881FDAF7880F9695A7
S11307C0879597F9089597F99F6780E870E060E04E
S11307D008959FEF80EC089500240A9416161706D6
S11307E018060906089500240A941216130614061E
S11307F005060895092E0394000C11F4882352F081
S1130800BB0F40F4BF2B11F460FF04C06F5F7F4F38
S11308108F4F9F4F089557FD9058440F551F59F01F
S11308205F3F71F04795880F97FB991F61F09F3FD9
S113083079F087950895121613061406551FF2CF02
S11308404695F1DF08C0161617061806991FF1CF52
S113085086957105610508940895E894BB27662779
S11308607727CB0197F908950E94680430F09F37E9
S113087010F40C942E040C943F040C945A04882312
S113088071F4772321F09850872B762F07C06623C5
S113089011F499270DC09051862B70E060E02AF086
S11308A09A95660F771F881FDAF7880F96958795B4
S11308B097F908959F3F31F0915020F487957795EB
S11308C06795B795880F911D9695879597F9089523
S11308D00E941304A0F0BEE7B91788F4BB279F3821
S11308E060F41616B11D672F782F8827985FF7CF0D
S11308F0869577956795B11D93959639C8F30895B4
S1130900A29FB001B39FC001A39F700D811D11244C
S1130910911DB29F700D811D1124911D0895F894AD
S1050920FFCF03
S10909221400080031007E
S9030000FC
