S00B00005450342E7372656341
S11300000C9434000C9446000C9446000C94460066
S11300100C9446000C9446000C9446000C94460044
S11300200C9446000C9446000C9446000C94460034
S11300300C9446000C9446000C9446000C94460024
S11300400C9446000C9446000C9446000C94460014
S11300500C9446000C9446000C9446000C94460004
S11300600C9446000C94460011241FBECFEFD8E038
S1130070DEBFCDBF21E0A0E0B1E001C01D92A13000
S1130080B207E1F70E945A000C948E000C94000011
S11300902FEF30E0281B310930938B0020938A0026
S11300A008952FEF30E0281B310930938900209305
S11300B0880008950E9475000E94830083E0809365
S11300C0000184B1866284B985B1806285B984B146
S11300D0806184B985B1806185B980E00E94510056
S11300E080E00E9448007894FFCF84B5826084BD8C
S11300F085B5836085BDEEE6F0E080818260808313
S113010089EF87BD0895E0E8F0E08081816A80830B
S1130110E1E8F0E080818C6080830895F894FFCF5B
S9030000FC
