:100000000C9434000C9451000C9451000C94510049
:100010000C9451000C9451000C9451000C9451001C
:100020000C9451000C9451000C9451000C9451000C
:100030000C9451000C9451000C947E020C945100CD
:100040000C9451000C9451000C9451000C945100EC
:100050000C9451000C9451000C9451000C945100DC
:100060000C9451000C94510011241FBECFEFD8E026
:10007000DEBFCDBF11E0A0E0B1E0EEE5F5E002C0EB
:1000800005900D92A430B107D9F721E0A4E0B1E0CA
:1000900001C01D92AD32B207E1F70E9469010C94D4
:1000A000AD020C94000081E080937E0087E880938D
:1000B0007A00ECE7F0E08081806480830895CF933C
:1000C0005DEC859FA12D1124A695A695A6952A2FB6
:1000D000220F922F990F990F920FC82FC91B659F5E
:1000E000712D1124769576957695972F990F892FF6
:1000F000880F880F890FB62FB81B459F512D1124EB
:10010000569556955695952F990F892F880F880FDC
:10011000890F642F681B80E021C0282F30E08C17E6
:1001200018F491E09A0F01C09A2FF901E85EFE4F92
:1001300090838B1718F491E0970F01C0972FF90166
:10014000E25FFE4F9083861718F491E0950F01C08F
:10015000952FF901EC5FFE4F90838F5F8A30E8F2B4
:10016000CF9108958093240108952FEF30E0281B4C
:10017000310930938B0020938A00809323010895E6
:100180002FEF30E0281B310930938900209388003D
:1001900080932201089584B1866284B985B180621A
:1001A00085B980E00E94B20080E00E94B50080E046
:1001B0000E94C00020E00FC0822F90E0FC01E85EAA
:1001C000FE4F1082FC01E25FFE4F1082FC01EC5FEB
:1001D000FE4F10822F5F2A3078F30895809124011A
:1001E00008958091230108958091220108958091BE
:1001F0002701089580912601089580912501089591
:100200008093270160932601409325010E945F009F
:100210000895CF93DF93EC010E94EE00C85EDE4F9D
:100220009881890F0E94B200DF91CF910895CF93FA
:10023000DF93EC010E94F100C25FDE4F9881890FCD
:100240000E94B500DF91CF910895CF93DF93EC0129
:100250000E94F400CC5FDE4F9881890F0E94C0009D
:10026000DF91CF910895CF93DF93EC010E94EE00D0
:10027000E9E0F0E0EC1BFD0BE85EFE4F9081891B8E
:100280000E94B200DF91CF910895CF93DF93EC01EC
:100290000E94F100E9E0F0E0EC1BFD0BE25FFE4F95
:1002A0009081891B0E94B500DF91CF910895CF9373
:1002B000DF93EC010E94F400E9E0F0E0EC1BFD0BA1
:1002C000EC5FFE4F9081891B0E94C000DF91CF91AF
:1002D00008950E9470020E94A2020E94CB000E9418
:1002E00084014FEF6FEF80E00E9400010E945300F5
:1002F00084B1806184B985B18F7E85B978940E947C
:1003000031020E946502FBCF83E080932A011092A4
:1003100029011092280108958091280190912901C6
:100320000196909329018093280180912A018130C0
:1003300009F448C000F1823009F461C0833009F04B
:100340008FC085B1806185B980E00E94B20080E0F5
:100350000E94B50080E00E94C00080912801909129
:100360002901449709F07CC010922A0110922901BA
:1003700010922801089585B1806185B98091280186
:100380009091290101970E94090180912801909183
:10039000290101970E94170180912801909129015C
:1003A00001970E94250180912801909129010A97C7
:1003B00009F056C081E080932A0110922901109221
:1003C0002801089585B18F7E85B90E94F7000E94AB
:1003D000B2000E94FA000E94B5000E94FD000E9437
:1003E000C00080912801909129014497C9F582E0CD
:1003F00080932A011092290110922801089585B155
:10040000806185B90E94F700882339F08091280126
:100410009091290101970E9433010E94FA008823DC
:1004200039F0809128019091290101970E9445019E
:100430000E94FD00882339F08091280190912901C4
:1004400001970E94570180912801909129010A97F4
:1004500039F483E080932A01109229011092280137
:10046000089580912C01882329F00E948C0110921C
:100470002C01089580912B01811110922B01089578
:100480008091020190910301019690930301809362
:100490000201C29739F481E080932C01109203018C
:1004A00010920201809100019091010101969093B8
:1004B0000101809300010A9739F481E080932B01B8
:1004C0001092010110920001089583B7817F83BFCC
:1004D00083B7816083BF889583B78E7F83BF08957C
:1004E00084B5826084BD85B5836085BDEEE6F0E0AD
:1004F00080818260808389EF87BD08951F920F926B
:100500000FB60F9211242F933F934F935F936F93E6
:100510007F938F939F93AF93BF93EF93FF930E942B
:100520004002FF91EF91BF91AF919F918F917F9189
:100530006F915F914F913F912F910F900FBE0F9050
:100540001F901895E0E8F0E08081816A8083E1E8FF
:0E055000F0E080818C6080830895F894FFCFE6
:04055E000800310060
:00000001FF
