:100000000C9434000C9451000C9451000C94510049
:100010000C9451000C9451000C9451000C9451001C
:100020000C9451000C9451000C9451000C9451000C
:100030000C9451000C9451000C94E3020C94510068
:100040000C9451000C9451000C9451000C945100EC
:100050000C9451000C9451000C9451000C945100DC
:100060000C9451000C94510011241FBECFEFD8E026
:10007000DEBFCDBF11E0A0E0B1E0E0EFF9E002C0EB
:1000800005900D92A630B107D9F722E0A6E0B1E0C5
:1000900001C01D92A634B207E1F70E9479010C94C9
:1000A000F6040C94000081E080937E00EAE7F0E023
:1000B000808187688083ECE7F0E0808183648083BF
:1000C0000895EAE7F0E080818064808380917A007F
:1000D00084FFFCCFEAE7F0E080818061808380913B
:1000E000780090917900909307018093060108951C
:1000F000CF9399E2899FA12D1124A295AF7024E698
:10010000C82FA29FC0191124699F712D11247295C7
:100110007F70B62F729FB0191124499F512D112461
:1001200052955F70642F529F6019112480E021C0A6
:10013000282F30E08C1718F491E09A0F01C09A2F05
:10014000F901E053FE4F90838B1718F491E0970F5D
:1001500001C0972FF901E459FE4F9083861718F4D8
:1001600091E0950F01C0952FF901E85FFE4F908354
:100170008F5F8436E8F2CF910895CF93C82F0E9405
:10018000D202C0933602CF9108952FEF30E0281BA2
:10019000310930938B0020938A00809335020895B3
:1001A0002FEF30E0281B310930938900209388001D
:1001B00080933402089584B1866284B985B18062E7
:1001C00085B980E00E94BD0080E00E94C50080E00B
:1001D0000E94D00020E00FC0822F90E0FC01E0538D
:1001E000FE4F1082FC01E459FE4F1082FC01E85FD3
:1001F000FE4F10822F5F243678F3089580913602E7
:100200000895809135020895809134020895809177
:100210003902089580913802089580913702089537
:100220008093390260933802409337020E9478002D
:100230000895CF93DF93EC010E94FE00C053DE4F80
:100240009881890F0E94BD00DF91CF910895CF93CF
:10025000DF93EC010E940101C459DE4F9881890FA0
:100260000E94C500DF91CF910895CF93DF93EC01F9
:100270000E940401C85FDE4F9881890F0E94D00060
:10028000DF91CF910895CF93DF93EC010E94FE00A0
:10029000E3E6F0E0EC1BFD0BE053FE4F9081891B81
:1002A0000E94BD00DF91CF910895CF93DF93EC01C1
:1002B0000E940101E3E6F0E0EC1BFD0BE459FE4F68
:1002C0009081891B0E94C500DF91CF910895CF9343
:1002D000DF93EC010E940401E3E6F0E0EC1BFD0B70
:1002E000E85FFE4F9081891B0E94D000DF91CF9183
:1002F00008950E94D5020E9407030E94DB000E941D
:10030000900140E868EC88EC0E9410010E945300C4
:100310000E94CB0278940E947E020E949D02FBCF35
:1003200083E080934202109241021092400280E0EA
:1003300090E0A0E7B1EC80933C0290933D02A09343
:100340003E02B0933F028AEF90E090933B0280938D
:100350003A020895CF92DF92EF92FF920E946100DD
:100360008233910538F488EE93E0909301018093F5
:1003700000012FC08B35910538F080E991E0909312
:1003800001018093000125C0BC0180E090E00E9443
:10039000AE0320913C0230913D0240913E025091CB
:1003A0003F020E943C040E94A9046B017C01609101
:1003B0003A0270913B0280E090E00E94AE03A701F8
:1003C00096010E9412030E947F03709301016093C3
:1003D0000001FF90EF90DF90CF90089520914002B0
:1003E00030914102C90101969093410280934002ED
:1003F00090914202913009F446C020F1923009F404
:100400005DC0933009F079C080E00E94BD0080E0BB
:100410000E94C50080E00E94D0000E94AA012091A5
:100420004002309141028091000190910101281712
:10043000390708F462C010924202109241021092F1
:1004400040020895C9010E941901809140029091D3
:10045000410201970E942701809140029091410240
:1004600001970E94350180914002909141028436AB
:10047000910509F042C081E080934202109241024E
:100480001092400208950E9407010E94BD000E9440
:100490000A010E94C5000E940D010E94D0008091B7
:1004A000400290914102883C910539F582E08093A9
:1004B000420210924102109240020895C9010E9426
:1004C0004301809140029091410201970E945501A1
:1004D000809140029091410201970E9467018091B2
:1004E0004002909141028436910539F483E0809373
:1004F00042021092410210924002089580914302FC
:10050000882321F00E94EE01109243020895809109
:1005100002019091030101969093030180930201DF
:100520008E34910539F481E08093430210920301E7
:10053000109202010E94A802089583B7817F83BFB1
:1005400083B7816083BF889583B78E7F83BF08950B
:1005500080914402909145020196909345028093C8
:1005600044028F3F910549F040F0109245021092ED
:10057000440285B1806285B908952091040130E07C
:100580008217930720F485B18F7D85B9089585B1D1
:10059000806285B9089584B1806284B985B18F7D08
:1005A00085B9089580930401089584B5826084BD5F
:1005B00085B5826085BD8FE787BDEEE6F0E080817E
:1005C0008260808308951F920F920FB60F921124BC
:1005D0002F933F934F935F936F937F938F939F934B
:1005E000AF93BF93EF93FF930E948702FF91EF9128
:1005F000BF91AF919F918F917F916F915F914F913B
:100600003F912F910F900FBE0F901F901895E0E82B
:10061000F0E08081816A8083E1E8F0E080818D6094
:10062000808308955058BB27AA270E942A030C9460
:1006300002040E94F40338F00E94FB0320F039F416
:100640009F3F19F426F40C94F1030EF4E095E7FBB8
:100650000C94EB03E92F0E94130458F3BA176207B6
:1006600073078407950720F079F4A6F50C943504F8
:100670000EF4E0950B2EBA2FA02D0B01B9019001BD
:100680000C01CA01A0011124FF27591B99F0593F01
:1006900050F4503E68F11A16F040A22F232F342F49
:1006A0004427585FF3CF469537952795A795F04097
:1006B0005395C9F77EF41F16BA0B620B730B840BAC
:1006C000BAF09150A1F0FF0FBB1F661F771F881F64
:1006D000C2F70EC0BA0F621F731F841F48F48795BC
:1006E00077956795B795F7959E3F08F0B0CF9395AE
:1006F000880F08F09927EE0F9795879508950E9427
:100700001B0488F09F5798F0B92F9927B751B0F084
:10071000E1F0660F771F881F991F1AF0BA95C9F785
:1007200014C0B13091F00E943504B1E008950C94EA
:100730003504672F782F8827B85F39F0B93FCCF39D
:10074000869577956795B395D9F73EF49095809502
:10075000709561957F4F8F4F9F4F0895E89409C022
:1007600097FB3EF490958095709561957F4F8F4FE4
:100770009F4F9923A9F0F92F96E9BB279395F695FA
:10078000879577956795B795F111F8CFFAF4BB0F78
:1007900011F460FF1BC06F5F7F4F8F4F9F4F16C0DC
:1007A000882311F096E911C0772321F09EE8872F66
:1007B000762F05C0662371F096E8862F70E060E022
:1007C0002AF09A95660F771F881FDAF7880F96959B
:1007D000879597F9089597F99F6780E870E060E042
:1007E00008959FEF80EC089500240A9416161706CA
:1007F00018060906089500240A9412161306140612
:1008000005060895092E0394000C11F4882352F074
:10081000BB0F40F4BF2B11F460FF04C06F5F7F4F2C
:100820008F4F9F4F089557FD9058440F551F59F013
:100830005F3F71F04795880F97FB991F61F09F3FCD
:1008400079F087950895121613061406551FF2CFF6
:100850004695F1DF08C0161617061806991FF1CF46
:1008600086957105610508940895E894BB2766276D
:100870007727CB0197F908950E944F040C94020446
:100880000E94F40338F00E94FB0320F0952311F03E
:100890000C94EB030C94F10311240C9436040E9485
:1008A000130470F3959FC1F3950F50E0551F629F9D
:1008B000F001729FBB27F00DB11D639FAA27F00DB9
:1008C000B11DAA1F649F6627B00DA11D661F829FE0
:1008D0002227B00DA11D621F739FB00DA11D621FC5
:1008E000839FA00D611D221F749F3327A00D611DE2
:1008F000231F849F600D211D822F762F6A2F1124C4
:100900009F5750409AF0F1F088234AF0EE0FFF1FF6
:10091000BB1F661F771F881F91505040A9F79E3F4D
:10092000510580F00C94EB030C9436045F3FE4F324
:10093000983ED4F3869577956795B795F795E795A3
:100940009F5FC1F7FE2B880F911D9695879597F9AC
:1009500008950E941B04E8F09E37E8F09639B8F439
:100960009E3848F4672F782F8827985FF9CF8695AF
:100970007795679593959539D0F3B62FB1706B0F36
:10098000711D811D20F487957795679593950C943B
:10099000CD040C94E8040C943604882371F4772376
:1009A00021F09850872B762F07C0662311F49927E2
:1009B0000DC09051862B70E060E02AF09A95660F8A
:1009C000771F881FDAF7880F9695879597F908950E
:1009D0009F3F31F0915020F4879577956795B795B3
:1009E000880F911D9695879597F90895F894FFCFF4
:0609F00014000C03FF00DF
:00000001FF
